:1000000000490020F93D0000A19B0100CD3D00000A
:10001000CD3D0000CD3D0000CD3D000000000000C2
:10002000000000000000000000000000353A000061
:10003000CD3D000000000000E1390000CD3D000092
:10004000E53A0000DD1E0100E53A0000E53A000057
:10005000E53A0000E53A0000E53A0000E53A000024
:10006000E53A0000E53A0000E53A0000E53A000014
:10007000E53A0000E53A0000E53A0000E53A000004
:10008000E53A0000E53A0000E53A0000E53A0000F4
:10009000E53A0000E53A0000E53A0000E53A0000E4
:1000A000E53A0000E53A0000E53A0000E53A0000D4
:1000B000E53A0000E53A0000E53A0000E53A0000C4
:1000C000E53A0000E53A0000E53A0000E53A0000B4
:0C00D000E53A0000E53A0000E53A0000C7
:0400DC00FFFFFFFF24
:1000E00081F0004102E000BF83F0004330B54FEAE9
:1000F00041044FEA430594EA050F08BF90EA020F56
:100100001FBF54EA000C55EA020C7FEA645C7FEAE8
:10011000655C00F0E2804FEA5454D4EB5555B8BF0B
:100120006D420CDD2C4480EA020281EA030382EA7C
:10013000000083EA010180EA020281EA0303362D0E
:1001400088BF30BD11F0004F4FEA01314FF4801CE1
:100150004CEA113102D0404261EB410113F0004FF3
:100160004FEA03334CEA133302D0524263EB4303AA
:1001700094EA050F00F0A780A4F10104D5F1200E48
:100180000DDB02FA0EFC22FA05F2801841F10001A3
:1001900003FA0EF2801843FA05F359410EE0A5F177
:1001A00020050EF1200E012A03FA0EFC28BF4CF0A8
:1001B000020C43FA05F3C01851EBE37101F000455E
:1001C00007D54FF0000EDCF1000C7EEB00006EEB6B
:1001D0000101B1F5801F1BD3B1F5001F0CD34908F5
:1001E0005FEA30004FEA3C0C04F101044FEA44524C
:1001F00012F5800F80F09A80BCF1004F08BF5FEAD3
:10020000500C50F1000041EB045141EA050130BDB2
:100210005FEA4C0C404141EB0101013C28BFB1F5C4
:10022000801FE9D291F0000F04BF01460020B1FA0F
:1002300081F308BF2033A3F10B03B3F120020CDAE2
:100240000C3208DD02F1140CC2F10C0201FA0CF0C0
:1002500021FA02F10CE002F11402D8BFC2F1200C25
:1002600001FA02F120FA0CFCDCBF41EA0C019040DB
:10027000E41AA2BF01EB0451294330BD6FEA040424
:100280001F3C1CDA0C340EDC04F11404C4F120020F
:1002900020FA04F001FA02F340EA030021FA04F321
:1002A00045EA030130BDC4F10C04C4F1200220FA78
:1002B00002F001FA04F340EA0300294630BD21FAB6
:1002C00004F0294630BD94F0000F83F4801306BF7C
:1002D00081F480110134013D4EE77FEA645C18BF70
:1002E0007FEA655C29D094EA050F08BF90EA020F07
:1002F00005D054EA000C04BF1946104630BD91EAFF
:10030000030F1EBF0021002030BD5FEA545C05D101
:100310004000494128BF41F0004130BD14F5800440
:100320003CBF01F5801130BD01F0004545F0FE41B4
:1003300041F470014FF0000030BD7FEA645C1ABFE9
:10034000194610467FEA655C1CBF0B46024650EA20
:10035000013406BF52EA033591EA030F41F400214C
:1003600030BD00BF90F0000F04BF0021704730B5D2
:100370004FF4806404F132044FF000054FF00001A7
:1003800050E700BF90F0000F04BF0021704730B568
:100390004FF4806404F1320410F0004548BF40423D
:1003A0004FF000013EE700BF42004FEAE2014FEA92
:1003B00031014FEA02701FBF12F07F4393F07F4F6D
:1003C00081F06051704732F07F4208BF704793F070
:1003D0007F4F04BF41F40021704730B54FF4607483
:1003E00001F0004521F000411CE700BF50EA010286
:1003F00008BF704730B54FF000050AE050EA01022F
:1004000008BF704730B511F0004502D5404261EB9E
:1004100041014FF4806404F132045FEA915C3FF4DF
:10042000D8AE4FF003025FEADC0C18BF03325FEA7C
:10043000DC0C18BF033202EBDC02C2F1200300FA2D
:1004400003FC20FA02F001FA03FE40EA0E0021FA52
:1004500002F11444BDE600BF70B54FF0FF0C4CF440
:10046000E06C1CEA11541DBF1CEA135594EA0C0FF2
:1004700095EA0C0F00F0DEF82C4481EA030621EA2D
:100480004C5123EA4C5350EA013518BF52EA033568
:1004900041F4801143F4801338D0A0FB02CE4FF01A
:1004A0000005E1FB02E506F00042E0FB03E54FF04A
:1004B0000006E1FB03569CF0000F18BF4EF0010E42
:1004C000A4F1FF04B6F5007F64F5407404D25FEA3E
:1004D0004E0E6D4146EB060642EAC62141EA5551F1
:1004E0004FEAC52040EA5E504FEACE2EB4F1FD0C33
:1004F00088BFBCF5E06F1ED8BEF1004F08BF5FEAB1
:10050000500E50F1000041EB045170BD06F0004662
:1005100046EA010140EA020081EA0301B4EB5C040F
:10052000C2BFD4EB0C0541EA045170BD41F4801107
:100530004FF0000E013C00F3AB8014F1360FDEBF2C
:10054000002001F0004170BDC4F10004203C35DA08
:100550000C341BDC04F11404C4F1200500FA05F38B
:1005600020FA04F001FA05F240EA020001F000422C
:1005700021F0004110EBD37021FA04F642EB0601A2
:100580005EEA430E08BF20EAD37070BDC4F10C04CC
:10059000C4F1200500FA04F320FA05F001FA04F290
:1005A00040EA020001F0004110EBD37041F100017C
:1005B0005EEA430E08BF20EAD37070BDC4F1200587
:1005C00000FA05F24EEA020E20FA04F301FA05F2EF
:1005D00043EA020321FA04F001F0004121FA04F297
:1005E00020EA020000EBD3705EEA430E08BF20EA67
:1005F000D37070BD94F0000F0FD101F000464000A1
:1006000041EB010111F4801F08BF013CF7D041EA22
:10061000060195F0000F18BF704703F00046520026
:1006200043EB030313F4801F08BF013DF7D043EAF7
:100630000603704794EA0C0F0CEA135518BF95EAAD
:100640000C0F0CD050EA410618BF52EA4306D1D134
:1006500081EA030101F000414FF0000070BD50EA53
:10066000410606BF1046194652EA430619D094EADD
:100670000C0F02D150EA013613D195EA0C0F05D1C7
:1006800052EA03361CBF104619460AD181EA03011B
:1006900001F0004141F0FE4141F470014FF00000D3
:1006A00070BD41F0FE4141F4780170BD70B54FF06E
:1006B000FF0C4CF4E06C1CEA11541DBF1CEA1355EE
:1006C00094EA0C0F95EA0C0F00F0A7F8A4EB0504D0
:1006D00081EA030E52EA03354FEA013100F08880C7
:1006E0004FEA03334FF0805545EA131343EA126390
:1006F0004FEA022245EA111545EA10654FEA002645
:100700000EF000419D4208BF964244F1FD0404F5FD
:10071000407402D25B084FEA3202B61A65EB030559
:100720005B084FEA32024FF480104FF4002CB6EB16
:10073000020E75EB030E22BFB61A754640EA0C0096
:100740005B084FEA3202B6EB020E75EB030E22BFD6
:10075000B61A754640EA5C005B084FEA3202B6EB17
:10076000020E75EB030E22BFB61A754640EA9C00D6
:100770005B084FEA3202B6EB020E75EB030E22BFA6
:10078000B61A754640EADC0055EA060E18D04FEA64
:10079000051545EA16754FEA06164FEAC30343EA04
:1007A00052734FEAC2025FEA1C1CC0D111F4801FD1
:1007B0000BD141EA00014FF000004FF0004CB6E7CA
:1007C00011F4801F04BF01430020B4F1FD0C88BF69
:1007D000BCF5E06F3FF6AFAEB5EB030C04BFB6EB74
:1007E000020C5FEA500C50F1000041EB045170BD67
:1007F0000EF0004E4EEA113114EB5C04C2BFD4EB94
:100800000C0541EA045170BD41F480114FF0000E17
:10081000013C90E645EA060E8DE60CEA135594EA93
:100820000C0F08BF95EA0C0F3FF43BAF94EA0C0F96
:100830000AD150EA01347FF434AF95EA0C0F7FF40B
:1008400025AF104619462CE795EA0C0F06D152EA5F
:1008500003353FF4FDAE1046194622E750EA410643
:1008600018BF52EA43067FF4C5AE50EA41047FF454
:100870000DAF52EA43057FF4EBAE12E74FEA4102B7
:10088000B2F1E04324BFB3F5001CDCF1FE5C0DD9EE
:1008900001F0004C4FEAC0024CEA5070B2F1004F38
:1008A00040EB830008BF20F00100704711F0804F3B
:1008B00021D113F13872BCBF01F00040704741F400
:1008C00080114FEA5252C2F11802C2F1200C10FA04
:1008D0000CF320FA02F018BF40F001004FEAC123E8
:1008E0004FEAD32303FA0CFC40EA0C0023FA02F38C
:1008F0004FEA4303CCE77FEA625307D150EA013362
:100900001EBF4FF0FE4040F44000704701F0004031
:1009100040F0FE4040F40000704700BF7BB972B960
:100920000029BEBF00204FF0004106E008BF0028AC
:100930001CBF6FF000414FF0FF3000F057B8ADF131
:10094000080C6DE904CE002909DB002B1ADB00F04E
:100950004FF8DDF804E0DDE9022304B070474042BF
:1009600061EB4101002B1BDB00F042F8DDF804E0F5
:10097000DDE9022304B0404261EB4101524263EBE6
:1009800043037047524263EB430300F031F8DDF854
:1009900004E0DDE9022304B0404261EB410170470D
:1009A000524263EB430300F023F8DDF804E0DDE995
:1009B000022304B0524263EB4303704753B94AB970
:1009C000002908BF00281CBF4FF0FF314FF0FF3057
:1009D00000F00CB8ADF1080C6DE904CE00F008F899
:1009E000DDF804E0DDE9022304B07047704700BF82
:1009F0002DE9F04786468C460846089E1546744603
:100A00001946002B40F0C2808542B2FA82F245D9E5
:100A10004AB1C2F1200300FA02FC2EFA03F395401A
:100A200043EA0C0C94404FEA154EA8B2BCFBFEF80A
:100A3000230C0EFB18CC08FB00F943EA0C43994544
:100A400028D9EB1808F1FF3704D2994502D9A8F14B
:100A500002072B44A3EB0903A4B2B3FBFEFC0EFB7D
:100A60001C330CFB00F044EA0344A04214D92C19B7
:100A70000CF1FF3304D2A04202D9ACF102032C44A2
:100A8000241A43EA07401EB1D44000233460736047
:100A9000BDE8F0874746DDE76346F1E792BB431BBD
:100AA00001214FEA154EAFB2B3FBFEFC200C0EFB4A
:100AB0001C330CFB07F840EA0343984562D9EB1856
:100AC0000CF1FF3004D2984502D9ACF102002B445E
:100AD000A3EB0803A4B2B3FBFEFC0EFB1C330CFB20
:100AE00007F744EA0344A7424ED92C190CF1FF330F
:100AF00004D2A74202D9ACF102032C44E41B43EA1E
:100B00000040C0E7C2F1200320FA03F19540904075
:100B10002EFA03F303434FEA154EAFB2B1FBFEFCCE
:100B20000EFB1C10190C0CFB07F841EA004188452C
:100B300004FA02F422D969180CF1FF3004D2884576
:100B400002D9ACF102002944A1EB08019BB2B1FB30
:100B5000FEFC0EFB1C110CFB07F743EA01439F420E
:100B60000ED9EB180CF1FF3104D29F4202D9ACF13F
:100B700002012B44DB1B41EA004192E76046E3E7B8
:100B80006146F7E76046A3E76346B7E7834206D9C5
:100B900016B9002108467BE7C6E900E0F9E7B3FA99
:100BA00083F78FB9834201D3724508D8BEEB0204A4
:100BB00060EB030301209C461EB9002168E738461C
:100BC000FAE7C6E9004CF8E7C7F1200CBB4022FA6F
:100BD0000CF41C432EFA0CF120FA0CF3B84001433C
:100BE0004FEA14490EFA07F5B3FBF9F81FFA84FE31
:100BF00009FB18300B0C08FB0EFA43EA00439A4538
:100C000002FA07F240D9E31808F1FF3004D29A45FE
:100C100002D9A8F102002344A3EB0A0389B2B3FB73
:100C2000F9F809FB183308FB0EFE41EA03418E4533
:100C30002CD9611808F1FF3304D28E4502D9A8F1EE
:100C40000203214443EA0040A0FB0298A1EB0E01FD
:100C50004145CE46434602D306D14D4504D2B9EBB9
:100C6000020E68EB04030138002EA6D0B5EB0E028D
:100C700061EB030101FA0CFC22FA07F34CEA0303CF
:100C8000F940C6E9003198E74046C5E74346D9E751
:100C90002DE9F04F984C237891B08BB19749984843
:100CA0000968984A0068012318F02CF9964B00282F
:100CB0000146186002DA954818F04BF900232370BA
:100CC000934D2E68002E40F0DD80924B1B78002B58
:100CD00040F0D28011B0BDE8F08FDFF83C820AAA64
:100CE00038F8021B3B69059220469847B0F100098D
:100CF000059A07DA216889484B4606F1580218F030
:100D000028F9ADE00136032E02F10802E8D10B9874
:100D1000FFF738FB52465B46FFF7C8FC06460A98C9
:100D20000F46FFF72FFB02460B4630463946FFF7CA
:100D3000DDF906460F980F46FFF724FB52465B4647
:100D4000FFF7B4FC80460E988946FFF71BFB02466E
:100D50000B4640464946FFF7C9F9CDE902010D9817
:100D6000FFF710FB52465B46FFF7A0FC80460C984D
:100D70008946FFF707FB02460B4640464946FFF708
:100D8000B5F932463B46CDE90001216864485E4C26
:100D900018F0DFF80B98FFF7F5FA52465B46FFF7BD
:100DA00085FC06460A980F46FFF7ECFA02460B460A
:100DB00030463946FFF79AF9FFF760FD07900D9826
:100DC000FFF7E0FA52465B46FFF770FC06460C98C8
:100DD0000F46FFF7D7FA02460B4630463946FFF773
:100DE00085F9FFF74BFD08900F98FFF7CBFA5246B5
:100DF0005B46FFF75BFC06460E980F46FFF7C2FA0C
:100E000002460B4630463946FFF770F9FFF736FDCC
:100E10004449099007A818F08AF839480499414ACA
:100E200000680C2318F06EF8011E21DB00232360FC
:100E30002E6801362E60002E7FF44CAF3A4B1B68B3
:100E400004933A4CA7683921FB6820469847B0F1D3
:100E50000009BFF642AF216835484A4618F079F8D4
:100E6000294B3448C3F80090494618F072F8DFE780
:100E7000264818F06EF8D9E70FF2740BDBE900ABE7
:100E80002D4DD7E71D2E11D100214FF4A47017F07E
:100E9000C5FC1A491A4809681A4A0068012318F063
:100EA00031F8011E02DA194818F053F82B68013B9B
:100EB000022B2B607FF40EAF2048056983680AA9D6
:100EC0005B68984720B92B680A985840C0F3C02047
:100ED00000287FF7FFAE0F4B00201870094B6E22E1
:100EE0001A7001F063FA01232370F3E6AFF3008078
:100EF0000000000080842E4106270020941100206D
:100F0000D4110020740800208C110020C7F40100C7
:100F100090110020700800204CF4010008F5010039
:100F20002FF50100072700209811002024DA010086
:100F3000E2F401005AF501008811002048D90100AF
:100F40002DE9F843D0E90C35D0F82C805C19303409
:100F5000A0450F46164619D81D4DA3FB05011AA33F
:100F6000D3E90023FFF72AFD0346A4EB0800A0FB0A
:100F7000050123F07F4414A3D3E90023FFF71EFDEE
:100F800020F07F403C603060BDE8F883DFF840909F
:100F90000DA3D3E90023A8FB0901FFF70FFD0446C9
:100FA00005F1300008A3D3E90023A0FB0901FFF7F6
:100FB00005FD24F07F4420F07F403C603060BDE8B8
:100FC000F88300BFAFF300808D49FD1A07000000D1
:100FD00000CA9A3B00000000002800F036812DE98D
:100FE000F04FC54C94F86A30DA078DB000F1678194
:100FF00094F8292094F8353004EB820204EB830343
:10100000D66AD3F838800EB3354615F8020BC0F314
:10101000801008F017FA06220146284618F0EAFD6B
:1010200033785B0606D50621284606F049FE0028DF
:1010300000F04781454615F8020BC0F3801008F018
:1010400001FA06220146284618F0D4FD337813F041
:101050000E0F40F08F80236A1BB10C200DB0BDE84D
:10106000F08F08F0CFFE8146002800F0388108F0AC
:10107000D5FE8246002800F02F810BF0BDFC05460E
:10108000002800F02E81D0F888004FF6FF732B85E2
:1010900005F11C0B002800F01A8105F17C0205F116
:1010A000780106F019FEB5F8763023F4EF6323F0EB
:1010B000070343F4887343F00103A5F8763095F8ED
:1010C000393003F03F0363F07F0385F8393095F83A
:1010D0008E3023F0070385F88E3095F83C3023F0EE
:1010E0000703002785F83C304FF4C023C5F888314A
:1010F0002846C5E91277C5F88870A5F88C706F8608
:10110000C5F82E7085F83B702F65A5F88E71A5F88F
:1011100084710DF0B9FD85F85071C5F854910BF04C
:10112000F7FE95F8943160F3020385F894310BF0E3
:10113000F5FE95F8943160F3C50385F8943195F880
:10114000803167F3410385F88031012128460CF096
:10115000F9FA05F1D4000DF053FBC4E9189AC4F86C
:1011600020B0C5E905772F70ED6111F023FC002850
:1011700040F0A98094F824300121C3F342030DF11B
:101180002B008DF82B3006F031FF024600285ED090
:1011900098F8011030460AF063FF5849B4F86870B7
:1011A00000253123A360C4E9055551A3D3E90023E9
:1011B00025706560E560A0FB0101FFF7FFFB206182
:1011C00008F0FCF800F109083FB9357805F00F0583
:1011D000A5F10105B5FA85F56D0994F82400236998
:1011E00065F3000010F0010584F8240036D0444A6D
:1011F0000992002010600225424A434F04930BAE2F
:10120000019305920321CDE9020006944346009024
:10121000089607972A460B9507F0D4FF314608F049
:1012200091FEA0B9394905914AF2D8330093CDE92E
:101230000300CDE901000797089606944346012272
:1012400003210B9507F0A2FF2EE00AF05BBE236A94
:10125000002B3FF402AF0AF013FEFEE6284A2C48AA
:10126000049303F247130694029591211360A7FBA0
:10127000000301FB0731244B0793224B05934FF6E4
:10128000FF730992022703930BAE19A3D3E900233E
:101290000B970896FFF792FB4346CDE900503A467C
:1012A0002846032107F08EFF314608F04BFE002848
:1012B000CDD194F86A3043F0010384F86A300020FD
:1012C000CCE61220CAE60AF0DBFD0320C6E605F1F3
:1012D0008000C5F88800E0E6484608F099FD072040
:1012E000BCE6504608F0A0FD484608F091FDF6E740
:1012F0008D49FD1A070000005C1B002000CA9A3BC4
:10130000501B0020DDC000002995000029BC000012
:10131000002AE7840000000070B590F824308AB0FD
:10132000C3F342030D46044601210DF12300164686
:101330008DF8233006F05AFE7178024628460AF0EE
:101340008FFE1D491AA3D3E90023A0FB0101FFF77B
:1013500035FB23699842054622D21B1A00220192CE
:10136000164A02930221164B0991A21ACA40A3FB06
:101370000232D20800230A4409AE12490591CDE990
:1013800003330321D2B206960093184607F078FF84
:10139000314608F0D7FD38B9256100200AB070BD8C
:1013A000FBD9C21A0023DAE70C200AB070BD00BFD7
:1013B0008D49FD1A0700000000CA9A3B5C1B002003
:1013C000F712DA4B299500002DE9F04F05468BB056
:1013D0008B46012002219A46144613F0A3F80022FE
:1013E00002218146012006F0C7FC39494FF4D07232
:1013F000284606F051FCC61CF6B2364B0095324624
:101400000121002007F054FF10F0FD0F0CD0324AEC
:101410003249334840F6060318F011F9404080F392
:1014200011884FF0030002DF2E4BA4FB0348204637
:1014300025A3D3E900234146FFF7C0FA0895069596
:101440002B690493284B20F07F47A7FB0331E01A58
:10145000264B07934FF00702254B059302FB07111C
:101460004FF6FE7368EB010103934FF47A72002389
:10147000FFF7A4FACDF800B0CDE90170534632462B
:101480000121002007F082FE10F0FD0F0CD0124A5F
:101490001249134840F61B0318F0D1F8404080F37E
:1014A00011884FF0030002DFB9F1000F02D10BB039
:1014B000BDE8F08F0122022110460BB0BDE8F04FCD
:1014C00006F05ABCAFF300808D49FD1A07000000FA
:1014D000080E0020A1C9000078E601003CE70100E9
:1014E000A4E1010000CA9A3B8D49FD1A49C90000D8
:1014F000ED1B0100000000002DE9F043C469228DBE
:101500004FF6FF739A428DB000F088800546204662
:101510000DF036FE95F82830012B00F00A81022BE1
:1015200000F0FD80002B00F0DC8094F85071002F5B
:1015300040F0F880E68DB4F83080002E71D1AA8C8E
:1015400008F101060023CDE90A33B6B2002A70D0B3
:1015500094F93930002BC0F243810023A4F88A317A
:1015600095F82630D90740F1EA800023A4F88E319F
:101570000DF12702314620460DF0C2FB743000F019
:101580004181B4F888312BB1B34240F208819B1BF2
:10159000A4F88831B4F884312BB1B34240F2F6801C
:1015A0009B1BA4F88431258E17B9A84500F0E5806F
:1015B0000135ADB294F8D13013F0010659D1DDE90F
:1015C0000A130A46002B40F0E880002900F0D7807B
:1015D0001E461846228DE4690694CDE9035703326E
:1015E000A54D0290CDE90016D2B20121002005954B
:1015F00007F046FE10F0FD0F10D008F0E3FC844227
:101600000CD09E4A9E499F4840F2EC4318F017F8D0
:10161000404080F311884FF0030002DF0DB0BDE8B9
:10162000F083AA8C46440023CDE90A33B6B2002ADF
:101630008ED195F82630DA0797D4B4F88A31002B8A
:101640007DD0B34240F2F6809B1BA4F88A31B4F8F7
:101650008E31002B8CD09E4280F0DA809B1B9BB297
:101660000022062BA4F88E31228600F2A8800127E2
:101670007EE794F939206FF30003002A84F8D13013
:1016800073DB94F87600C0F3C00100F0070010F09F
:10169000F3FFB4F86E30B4F86C10194401F2AD11D8
:1016A0000844794972A3D3E90023A0FB0101FFF7A5
:1016B00085F9DDE90A1320F07F422069226190421A
:1016C00035BF161A801A002000260A46002B81D149
:1016D00056EA010C7FF47EAF002850D019461E4612
:1016E00078E794F88E3003F01803182B7FF41DAFC1
:1016F000A18DB4F886218B1D9A42C4BF931F5B1A3B
:10170000B4F88211CCBF9BB21346994200F08C8092
:10171000A4F88231A4F88431A4F8882105E73D2794
:1017200084F85071394620460DB0BDE8F0430BF007
:10173000D3BC0023A4F88831A4F88431F5E6B4F8CA
:101740008E31002B87D1628DB4F88C3140F2E241AA
:1017500001FB02F242F2107101FB0323013BB3FBD8
:10176000F2F39BB2A4F88E3173E794F8770001216D
:1017700000F0070010F082FF8BE73D461AE7002DCE
:101780004BD0002611463046334623E70023A4F809
:10179000843120460DF054FB05E730461AE708F087
:1017A00089FB014600283BD00023A4F88831238D13
:1017B000C3801B230371006808F046FBEAE694F936
:1017C00039309342BFF6D4AEB8F1000F7FF44FAF7B
:1017D000D4F878315A08DB0743D4C4F87821C7E637
:1017E00028460AAA0BA904F1D409FFF7A9FB484629
:1017F0000DF048F818B348460DF044F818B300232C
:101800002386AAE69DF8271020460BF065FC05E725
:10181000082120460BF060FC00E7002FB1D1FDE667
:101820000123A4F88831B5E6B4F8881100297FF4C3
:101830007CAE6FE73E2120460BF04EFCEEE6FF202B
:101840000BF00AFCD7E70246D4E91E0106F05CFA69
:101850000028D4D194F83C30580744BFA38D238688
:101860007BE642F00042C4F8782100E7AFF3008045
:101870008D49FD1A0700000009C9000078E6010043
:10188000A0E70100A4E1010000CA9A3B00000000AB
:101890002DE9F04F87B0CDE90423BDF8442003784B
:1018A0000292BDF84820BDF84080BDF84C50468EED
:1018B000B0F82E90B0F814B1019104460392002BB9
:1018C00000F08E80013EB6B2A368D4F80C71721B92
:1018D00092B2002B009209DAE168626823F00043BB
:1018E00091422CBF7F18BF18A360FF1A009A638D26
:1018F00013FB02F39BB2B3FBF8F218FB02F080B2C9
:1019000083421FFA82FA5AD2C01A40F2E2425E497A
:1019100002FB00F0A0FB010159A3D3E90023FFF76C
:101920004DF820F07F400744D94494F839304D44B5
:10193000AD1B554440F2E246DB09E58506FB08F5A0
:1019400052D1524A5249534840F6910317F077FE5C
:10195000404080F311884FF0030002DF0026A946C3
:10196000029BA385039BA4F88C3129462046A4F84A
:101970002A800DF001FA484BA18D2B44881DB3FB42
:10198000F5F39AB29042A4F8862102D2521A063A8E
:1019900092B2019BA4F8822113B10023A4F88E31E6
:1019A0003B464A4631462046FFF70EFD94F880310B
:1019B00043F0010384F8803107B0BDE8F08F08FBE5
:1019C0001231314840F2E24389B203FB01F1A1FB3D
:1019D00000012BA3D3E90023FEF7F0FF3F1AA3E792
:1019E0004E445E44B6B26FE7226C0099A36CDFF8F8
:1019F00098B002FB1133A36411F02CF8814694F8DF
:101A00007401C0F3420011F027F8049B814406FBE7
:101A100003F305FB09F9236509F574291F4B09F246
:101A20003F29A3FB09394FEA994303FB0AF02364DA
:101A3000A5EB0309A36C6A080344963A934228BFB6
:101A40001346C4E911230023C4F87C31A0FB0B0129
:101A50000BA3D3E90023FEF7B1FF114B059A3F1A00
:101A6000A3FB0230800A06FB00F005A3D3E90023A4
:101A7000A0FB0B01FEF7A2FF20F07F4670E700BF3E
:101A80008D49FD1A0700000000CA9A3B78E6010064
:101A900020E20100A4E101007FC3C90183DE1B43F2
:101AA0005917B7D1000000002DE9F04F0B68D3F8AB
:101AB0000090037F93B09046C3F38013154604460D
:101AC00006220E4600F11E0110A80B9358F8087B61
:101AD00018F090F810A906220EA818F08BF82146ED
:101AE000404651F82EBB032205F1040A18F082F893
:101AF00005F11808042204F12A01504618F07AF87A
:101B0000052204F13A01404618F074F840460521D8
:101B100006F06CFA6B7F00F03F0060F305036B7713
:101B200094F83F30C3F30402AA77A28EEA81012819
:101B300008D903F01F031B3303F01F030B2B01D83D
:101B400092B2BAB90022C9F8142095F8203062F395
:101B5000000385F82030E5680126584621462671A5
:101B600008F068F928682E71294608F06DF913B05D
:101B7000BDE8F08F336800215960E38EEA892B823B
:101B800040F2E24303FB02F83846638E0D930DF0FA
:101B900007F994F83F2097F87411520962F3430152
:101BA00087F8741110F056FF0C9097F87401C0F389
:101BB000420010F051FF0C9A104408FB00F0A84AB4
:101BC00000F5742000F23F20A2FB00204FEA5802EB
:101BD000800C963A6862AA6294F8312040F2E2439F
:101BE00002FB03F3AB63238FA7F88C3141463846E1
:101BF0000DF0C2F89B4B9C4AC7F890214344B3FBBD
:101C0000F8F39AB2A7F88621298A881D824204DD5A
:101C1000C1F57F41FA310A4492B2A7F882215146B8
:101C2000042207F5BC7017F0E5FF234613F81C2FBC
:101C3000C2F340120C92DA0700F1ED809DF82C30CF
:101C4000A3774FF480730EA9A383062204F11F002B
:101C500017F0D0FFEB89E3842B8A2385B7F88C310A
:101C6000638597F87431C3F3420384F82C30384607
:101C70000AF0CEFEA881E08021465846746808F03C
:101C8000D9F8AB89E3801C2323710C9BD4F800B0F6
:101C9000002B40F0B6800C9B23772146584608F075
:101CA000D3F895F85B00B5F850A0B5F85240012183
:101CB00000F0070010F0E2FC544404F20D24DFF8B9
:101CC000ACA18346312320180024A0FB0A01BB608D
:101CD0007C6061A3D3E90023FC60FEF76FFE20F077
:101CE0007F403861F3680D996D6A40F2E24201204D
:101CF000A8EB050502FB01382246022106F03CF85C
:101D000048460AF09BFB08F2B2480246A8EB0B08D3
:101D1000A8FB0A01924650A3D3E90023FEF74EFE2A
:101D2000CDF80490B3685249009120F07F480AF141
:101D300002023A3BD2B220464344012107F0FAFAAC
:101D4000012875D099F82430DB0752D438460AF0C0
:101D50005FFE464BA5FB03A904463FA3D3E900233E
:101D600050464946FEF72AFE424BB668424A079261
:101D700020F07F45A5FB0331BAEB03003F4B0593F1
:101D800040F2CD13069708933B694FF0000BCDE965
:101D900003B34FF0070303FB051169EB01014FF497
:101DA0007A720023FEF70AFE03343A3EE4B2CDE92C
:101DB0000150CDF80080334622460121584607F0F5
:101DC000E5F910F0FD0F0CD02D4A2E492E484FF4A6
:101DD000E77317F034FC404080F311884FF00300A4
:101DE00002DF01220221104605F0C6FF13B0BDE854
:101DF000F08F0023012200931846114607F058FA8D
:101E0000A4E76B7F43F040036B7750460FF0F0FF81
:101E10000123E88340E71A4A1C491B48F72317F0BF
:101E20000EFC404080F311884FF0030002DF05E70D
:101E300008F0C8F8814585D0114A1549124840F28A
:101E4000752317F0FCFB404080F311884FF003002E
:101E500002DF77E7AFF300808D49FD1A070000002D
:101E600083DE1B437FC3C901404B4C0000CA9A3B31
:101E7000B11B01008D49FD1A811B0100ED1B010002
:101E80003CEC01003CE70100A4E1010068E4010032
:101E900098EC010000000000F0B5C468636883B0EE
:101EA0000546002B4ED111F073FF002011F0C6FF44
:101EB0000021084611F0B4FF00222521082011F06E
:101EC000F3FF3B4B019301A811F0D6FF394940F2D3
:101ED0005B6012F06FF8237AC3F3420262F30613D9
:101EE0002372204610F0BEFF27682E68384610F097
:101EF00061FB06446A6806F10901012012F082F9CB
:101F000012F040FA20460AF0A7FA811C3246C9B204
:101F1000384610F05DFB0546F8B9204610F0F2FA9D
:101F200010B9002003B0F0BD234A2449244840F2F0
:101F30002C4317F084FB404080F311884FF00300DE
:101F400002DFEEE793F820309B07ACD01D48214616
:101F500011F0DCFE11F0F0FFE3E7174A1A491848C8
:101F600040F2144317F06BFB184B0721A5FB03034A
:101F700001FB05310CA3D3E90023FEF71FFD144933
:101F80000246144817F05BFB404080F311884FF085
:101F9000030002DF1048214611F0B8FE11F0CCFF1B
:101FA0006FF08B00BEE700BF00CA9A3B0000000044
:101FB000D6BE898E5555550040EE010004E3010060
:101FC000A4E101005127010020E201008D49FD1A22
:101FD000F0EE0100C4EE0100652A010000000000DF
:101FE0002DE9F041C468A2894FF6FF739A4282B08E
:101FF00000F0C780054611F0D7F92B89628AE08A84
:102000001A4492B21044637FA28280B2411CE182E2
:102010005E064FF00001618204F1180100F18C802E
:1020200003F03F000B46A17F009004F11F000FF06A
:1020300097FE0646D4E90B231344D4E90D02002190
:102040000244E1626163A16AA26394F872208B4248
:1020500028BF0B4612F00402236377D011F098FEDC
:10206000002011F0EBFE201D11F006FF2389A17A5C
:1020700040F25B6043EA014111F09CFF304610F0F2
:10208000B9FA2146584811F041FE962012F0AEF8F8
:1020900094F85A2094F85B00C2F3C003002102F0C8
:1020A000070200F0070011F0EFFF204611F0DCF905
:1020B00027682E68384610F07DFA06446A6806F1F3
:1020C0000901002012F09EF8804612F02FF900203E
:1020D00012F046F9236B94F85B0003F13002A36B16
:1020E00000F00700012103EB420511F017FF454402
:1020F000054494F85B0000F00700022824D004286F
:102100000CBF4FF4BC73282301211D4411F008FFBC
:10211000284412F0FDF8A18903313246C9B238468D
:1021200010F056FA054698BB204610F0EBF9D0B9EE
:10213000002002B0BDE8F0810A4603F03F03E18BC6
:102140000FF05AFE064675E71823DDE7D4E91701BC
:1021500005F0DAFD002881D194F8723043F00403D1
:1021600084F872307AE7214A2149224840F2551317
:1021700017F065FA404080F311884FF0030002DF4A
:10218000D6E71D48214611F0C1FD11F0D5FECFE77D
:10219000164A1A49174840F24B1317F050FA184BD9
:1021A0000721A5FB030301FB05310DA3D3E90023A0
:1021B000FEF704FC13490246134817F040FA40406A
:1021C00080F311884FF0030002DF1048214611F020
:1021D0009DFD11F0B1FE6FF08B00AAE7AFF3008018
:1021E00000CA9A3B00000000C536010068EF0100FC
:1021F00004E30100A4E101005127010020E20100F5
:102200008D49FD1ABCEF0100C4EE01003127010029
:10221000032973B50546144660D8002A40D0072A22
:102220005CD15A681C683848D1171346C4FB00318A
:10223000012B71F1000225DB00F56E1000F65D70D8
:1022400018182FA3D3E9002341F10001FEF766FB24
:1022500080B202281ED004281ED008281ED01028C4
:1022600033D1032329492A6951F823101161526897
:1022700014691B01302223212846A44602B0BDE880
:10228000704060472248181861F100011CA3D3E98F
:102290000023DBE70023E5E70123E3E70223E1E78F
:1022A0001A881C4B33F8021B8A420BD12E697368C3
:1022B0000DF107029B68202128469847002807DA7D
:1022C00002B070BD01340B2CECD16FF01500F7E7B4
:1022D0009DF80720130704D4082C05D16FF0850062
:1022E000EEE70A2C08BF0924736802F00F0242EAE5
:1022F0000412DB68D2B2202128469847E0E700BFED
:102300003AA395000000000040420F00580700204B
:10231000632EB5FF52F4010008B5034816F019FE0C
:10232000024B00221A6008BD68F40100D41100209D
:1023300008B51AF0D2FB0146044816F00AFE044B19
:1023400073221A70034B1E221A6008BD86F4010026
:102350007408002090110020014815F0FBBE00BF5A
:102360007001002010B5044621B1BDE810400448BA
:1023700016F0EFBD034816F0ECFD034B1C6010BDDA
:102380009CF40100BCF40100D411002030B40B46D1
:10239000044605488268156825B12146AC460722E7
:1023A00030BC604730BC704724DA0100094A03465C
:1023B000106812790121914002691268114218BF18
:1023C00083F0010313B18368DB68184783681B69D6
:1023D000FBE700BF90010020F0B5634B8BB02722D4
:1023E00003A90020CDE90323FFF7D0FF03A90120B3
:1023F000FFF7CCFF03A90220FFF7C8FF002002F07F
:102400006BFD064630B10146584816F0A2FD00208B
:102410000BB0F0BD564D574816F09BFD0FCD05ACE7
:102420000FC42B682360544900963346022205A846
:1024300003F03CF90146C0B1504816F08AFD002176
:102440004F4A084605F0FEF84E4B4F4A18600021EF
:10245000084605F0F7F84D4B18604D4C20461AF031
:102460005BFC30B921684B48CFE74B4816F071FD53
:10247000E5E74FF480314948494D16F008FD014623
:10248000286028B1226847480B2316F062FDBEE79A
:102490002369A7681B68BE6913F4006F4FF00B0136
:1024A00014BF4FF000734FF080634FF0A0722046CE
:1024B000B04726682860014618B13B480B233246D6
:1024C000E3E73A493A4B4B604FF400638B60FB699A
:1024D00013B1012220469847364C37480B2231462B
:1024E00016F037FD206850B11AF016FC2368064636
:1024F000A8B91A682968314816F02BFD2660304CBF
:10250000002323602BB30120FFF750FF4FF4247208
:1025100000232C48CDE9002316F0DEFB77E7002BE3
:10252000EDD04FF40031204616F0B1FC237928603D
:10253000014638B122682448126816F00AFD0023CB
:102540002360DCE72168214809681A4616F001FD7E
:10255000D5E71F481AF0E0FB18B91D4B1D48196854
:1025600053E723680133CCE72875030073F50100B6
:1025700000DD010093F5010068DD0100AAF501000E
:102580000C08002098110020080800209411002059
:1025900048D90100F2F50100D0F5010004DE010088
:1025A0008C11002018F6010041F60100D81100201E
:1025B000312300009001002077F6010093F601001E
:1025C0008811002098080020C6F60100FAF60100E4
:1025D00024DA010013F70100014B1B68184700BF04
:1025E00098010020014B1860704700BF980100203F
:1025F00007B50B46002102460091034800F014F98C
:1026000003B05DF804FB00BFD92500002DE9F047B9
:10261000058B04462807904611D4022905F00705CA
:1026200040F0CD80204616F071FE78B10138218B44
:10263000042811D8DFE800F0C3106D85950001294A
:102640000CBF45F0100545F02005258388F311885F
:10265000BFF36F8FBDE8F08701F0070AAA4500F0CD
:10266000A6800027B9463E46A368002B00F0BD8037
:1026700041F00801218388F31188BFF36F8FA168AF
:10268000002900F0BB800D68002900F0B780D1F868
:102690000480334652462046C047002D76D02B6832
:1026A00029461D46F0E701F007035A1F012A1BD8EF
:1026B000002221F00701062B276889B2C4E9002215
:1026C00009D13B4603E0628B013262831B68002B19
:1026D000F9D141F002012183204616F017FE0028AF
:1026E0007BD041F0200177E0042B0AD121F00701D3
:1026F00089B22183204616F009FE10B141F0200175
:102700002183218B01F0070AAA4550D00027B94642
:10271000AAE7236921F0070141F00601062DD3F84D
:10272000009021832DD1B9F1000F40D041F0080174
:10273000218388F31188BFF36F8F3A492046C84739
:1027400029E021F00701236941F0040189B2042D39
:10275000D3F804902183E6D000273E464FF0040AC8
:1027600082E721F00701236941F0050189B2052DB7
:10277000D3F808902183D6D000273E464FF0050AB3
:1027800072E700273E464FF0060A6DE72B4687E7C3
:10279000B9F1000FD1D14FF02003EFF3118883F38B
:1027A0001288BFF36F8F238B23F008032383258BBD
:1027B000EA062ED525F01003238305F00705666988
:1027C000218B002EBFF66FAF00232768C4E90033CA
:1027D00021F0070141F001012183218B01F0070A5B
:1027E000AA454FF000097FF43FAF002F9BD041F086
:1027F0000801218388F31188BFF36F8F002FC7D0A2
:102800003D68394633465246204616F0ABFD2F460A
:10281000F4E7AB067FF51AAF25F02003238305F01C
:102820000705FFE6919301002DE9F04F9FB0824626
:10283000039116461C460025307810B9284600F052
:102840008BBD731C2528069306D00399D04700281A
:10285000C0F2828501352BE21822002110A817F062
:10286000D4F97378252B7DD00023701C98469E46A2
:102870009C461F46014610F8012B2B2A00F0A18030
:1028800000F29880202A00F09F80232A00F09F8089
:102890002BB19DF8483043F040038DF84830B8F133
:1028A000000F05D09DF8483043F020038DF84830E4
:1028B000BEF1000F05D09DF8483043F010038DF8AD
:1028C0004830BCF1000F05D09DF8483043F00803B4
:1028D0008DF848302FB19DF8483043F004038DF84F
:1028E00048309DF8483003F04400442803D16FF38A
:1028F00086138DF848309DF848302A2A43F080032B
:102900008DF848307FD19DF8492042F001024B1CE0
:102910008DF849201A782E2A9DF849200CBF0121F4
:10292000002161F341028DF8492078D15A782A2A92
:102930006ED0013300224FF00A0C194611F8010B3A
:10294000A0F13007092F40F2AF809DF84810149293
:10295000C1F3400040EAD2700A4660F341028DF8AC
:1029600048205CE0B21C06928DF84B309DF849304F
:10297000DF0740F1548154F8042B0492002A08DA4E
:102980009DF8482042F004028DF84820049A5242F3
:102990000492580740F14B8154F8047B002F80F2D9
:1029A0004A819DF849306FF341038DF849304FF06B
:1029B000FF3740E12D2A0DD0302A7FF469AF012383
:1029C00058E74FF0010C55E74FF0010E52E74FF07A
:1029D00001084FE701274DE70EFB0272303A03462C
:1029E000184610F8017BA7F1300CBCF1090FF3D9A0
:1029F00099428FD09DF848101392D20F62F3410193
:102A00008DF8481086E70B4600224FF00A0EE7E7E4
:102A10009DF8492042F004028DF8492002331A78CB
:102A20006C2A61D045D8682A4BD06A2A65D04C2AD6
:102A30006BD013F8012B0693782A8DF84B2000F207
:102A4000AD806D2A6ED8692A00F2A880572A00F25C
:102A50008880412A04D0A2F14503022B00F29E8017
:102A60009DF84A3002F0DF020421A2F1410861F32F
:102A70000203D8F100029DF849108DF84A3042EB6C
:102A8000080262F3C7110A068DF84910CBB200F1B3
:102A9000C48003F07802182A40F0AE806FF3C603BA
:102AA0008DF8493000239DE00CFB0202303A0B46C2
:102AB00043E7742A25D07A2ABBD19DF84920062104
:102AC0000CE05A78682A9DF8492006D1012161F36B
:102AD000C6028DF849200233ABE7022161F3C6023A
:102AE0008DF849200133A4E75A786C2A9DF84920D3
:102AF00001D10421EBE70321F0E79DF849200521EE
:102B0000ECE79DF849200721E8E7BDF8482022F4CA
:102B1000F04222F0020242F4804242F00202ADF89A
:102B20004820DFE76E3AD3B201229A4040F2824356
:102B30001A429DF8493038D112F0240F60D1D107E4
:102B40002CD59DF84A2003F07803A3F1400C032113
:102B500061F30202DCF100038DF84A2043EB0C0321
:102B600040E0A2F15801C9B2012000FA01F111F4CC
:102B7000624F7FF475AF40F6010319429DF849306A
:102B800019D111F4043F09D09DF84A2060F30202E4
:102B900003F07803402B8DF84A2083D19DF848300C
:102BA00043F001038DF848307CE79DF84A2002216C
:102BB00061F30202ECE79DF84A10022003F078036B
:102BC00060F30201402B8DF84A1002BF9DF84810B7
:102BD00041F001018DF84810632A7FF463AF003B98
:102BE00018BF01239DF84820C2F340010B4363F353
:102BF00041028DF84820B9E613F0380FCED151E7E5
:102C00009DF84A20032113F0780F61F302028DF83A
:102C10004A2014BF01230023E4E70123E2E79DF9E2
:102C20004820002AB4BF139A4FF0FF32B0E699074C
:102C30007FF5BDAE149F9DF849100023CDE91333F5
:102C40009DF84A3003F00702042A07D18A0705D409
:102C50009DF94920002AACBF06270D2703F0070382
:102C6000012BC1F3C30133D1CB1E042B04D8DFE801
:102C700003F0214646212100236801294FEAE3722F
:102C8000CDE910321CD19DF94030DA17CDE9103270
:102C900004349DF8483007939B0750D0069B039956
:102CA0003246504616F0B4FC0028C0F25583054465
:102CB000069EC1E554F8043BDA17CDE91032E8E787
:102CC0000229E5D11AB243F3C033CDE91023DFE77F
:102CD000022B24D1CB1E042B04D8DFE803F01810FC
:102CE00010181800012954F8043B4FF0000214D0CA
:102CF0000229CDE91032CCD19BB21093C9E7073439
:102D000024F00704F4E80223CDE91023C1E754F8C6
:102D1000043B109300231193BBE7DBB2CDE7042BF8
:102D200008D1073424F00704D4E900230834CDE99E
:102D30001023AEE7032BACD154F8043BDDE79DF83C
:102D40004BB0BBF1780FB3D8BBF1570F49D8BBF1EB
:102D5000250F00F09180BBF1240FA9D9BBF1410FE1
:102D600003D0ABF14502022AA2D8DDE91012002AF5
:102D7000C0F23681079B180700F13581C3F30019B3
:102D80004FEA4919C2F30A50C2F31302002840F077
:102D90002D8151EA020614BF01260026D20242EA22
:102DA0005152C902BBF1460F40EA010E42EAE07CF3
:102DB00008BF4FF0660B5EEA0C0CCDE90C1200F078
:102DC0009981002E40F044810D9A42F00042A0F219
:102DD000FE380D920020DDE90C1206464FF0050C7E
:102DE00050E1ABF15802202A3FF662AF01A050F843
:102DF00022F000BF7F2F0000B12C0000B12C00009A
:102E0000B12C0000B12C0000B12C0000B12C00004E
:102E1000B12C0000B12C00006B2D0000B12C000083
:102E2000032F0000172F00006B2D00006B2D0000FA
:102E30006B2D0000B12C0000172F0000B12C0000FA
:102E4000B12C0000B12C0000B12C0000B92F000003
:102E50007F2F0000852F0000B12C0000B12C000056
:102E60007F2E0000B12C00007F2F0000B12C00004D
:102E7000B12C00007F2F000003995846E6E4002F94
:102E8000109E3ADB3946304616F0CBFE3718002E3E
:102E90003FF40EAF4FF000099DF84A3013F01002D6
:102EA000059200F04E82023013F04003DDF84C80B2
:102EB000089318BF149BCDF81C80404418BFC0185D
:102EC000049B002B40F358829DF848201B1A049362
:102ED0005307C2F3800B00F14F82500640F13F824E
:102EE000B9F1000F07D003994846D0470028C0F237
:102EF00033820135D946302232E2304616F057FE91
:102F0000C4E7109B8DF85C304FF000090DF15D07B0
:102F100017AE0120C0E7079B1E0758BFC3F3001977
:102F2000DDE9102354BF4FEA49194FF02B09002B5C
:102F300006DA524263EB4303CDE910234FF02D092B
:102F40000DF175030093DDE9100117AB12AA16F01D
:102F500019FB0646002F0CDB9DF848200DF1750388
:102F60009B1B6FF386129F428DF8482001D9FB1AF4
:102F70001393002E3FF49CAE0DF1750756E04FF011
:102F80000009DDE71098002800F0D6810DF17503E7
:102F9000009312AA17AB002116F0F4FABDF84A30DC
:102FA00003F0EF0343F4F04343F010030646ADF89B
:102FB0004A304FF00009CDE7109B07293FF678AE65
:102FC000DFE801F00C04060C08080C0C1D706FE61D
:102FD0001D806DE6EA17C3E9005269E61D6067E6E9
:102FE0004FF02D09CEE64FF02B09CBE640F2FF76ED
:102FF000B0422AD10A43ABF141031ED11A2B35BF8F
:10300000492369234E216E2134BF462266228DF862
:103010005C309DF848308DF85D106FF386138DF8A5
:103020005E208DF848300DF15F0717AEB81BB9F17F
:10303000000F3FF431AF01302EE7192B8BBF6E2309
:103040004E23612141211A46E1E70026A6E6013818
:1030500049185241002AFADACDE90C12B4E64908BF
:1030600041EAC2715208B2F1333F404608F101080B
:10307000F5D20CFB02FEA1FB0C1200F10208724417
:10308000013E012018F1020FE9DB08B1CDE90C1275
:10309000B8F1000FDDE90C212FDCC8F1040008F1C4
:1030A0001C08A0F1200CC24021FA00F301FA08F834
:1030B0000BF0DF0042EA080221FA0CFC472842EA42
:1030C0000C0208933AD1F31C01DBB7422BDAABF1C7
:1030D0000203002F5FFA83FB7FDD9DF84800800626
:1030E00007F1FF3779D43B1E18BF0123059307F181
:1030F00001082DE04FF000086CE6023241F10001BA
:103100000CA8CDE90C2116F00EFADDE90C2108F12E
:10311000FF38013692184941002908F1FF38F9DAE1
:10312000CDE90C21B4E79DF848309906A7EB0607D6
:1031300051D43B1E18BF0123059304E00023BBF1CB
:10314000660F0593D3D117EB06084FF0660B46D4F4
:10315000B8F1100FA8BF4FF0100810200B904FF0DF
:1031600000610020CDE90E01DDE90E03B8F1000F8A
:1031700038D10899121841EB0301B1F1805F3FD2B9
:10318000CDE90C21079BBBF1660F03F0200240F054
:10319000B280002E3FDC30218DF85C10002A63D114
:1031A000002F40F3A8812E228DF85D2086B1724257
:1031B000BA42A8BF3A469DF84A101392002AA7EBDC
:1031C0000207D4BF0022012262F345118DF84A1094
:1031D0000DF15E0837E00023AEE7002386E74FF0ED
:1031E0000008BAE7400840EAC3705B08CDE90E0367
:1031F0000EA8099208F1FF3816F095F9099AB3E77D
:10320000520842EAC1720CA84908CDE90C210136E6
:1032100016F089F9B6E70DF15C080B99002909DD74
:103220000BA90CA8079216F096F9013E08F8010BBD
:10323000079AF2D113969AB9002F40F35A812E21A2
:1032400008F8011B0026002F17DD0B9A002A14DD59
:103250000BA90CA816F07FF9013F08F8010BF2E763
:103260002E2208F8012BEDE72E228DF85D20002E8E
:10327000AED0002F9BDC0DF15E08059B002B4ED1DC
:10328000149747460BF0DF02452A23D1002EBABF20
:1032900076422D232B23632EC8BF64217B70D1BFC0
:1032A000BA1CB6FBF1F3FA1C03F13000C8BF01FBF6
:1032B00013664FF00A01C8BFB87087F800B0B6FBBC
:1032C000F1F3174603F1300001FB1363303307F8C5
:1032D000020B5370139B002B2CDC149B002BD4BFD0
:1032E000002301239DF84A2063F3861200238DF802
:1032F0004A203B7099E60BA90CA8079216F02BF90F
:10330000079A8DF85C00302818BF06F1FF3612B915
:10331000002F40F3F0802E228DF85D2058E74746BD
:1033200008F1FF3817F8012C302AF8D02E2A08BFF0
:103330004746A7E70123D5E7704F81467E1F05204A
:10334000AAE51A0748BF0130AEE510460992039975
:10335000D0470028099A05DA1FB0BDE8F08F202277
:10336000DDF810B0594600290BF1FF3BEDDC049B62
:10337000CDF810B02B445D1AB9F1000F05D00399B8
:103380004846D0470028E7DB0135089B002B75D065
:103390009DF94930002B28DBB3469BF80000A0F1D3
:1033A0003003092BD9460BF1010B3FD99DF84A3068
:1033B000AE1B99064E4407D44246002A08F1FF3856
:1033C00039DC079B33449E1A99F800002E280AD155
:1033D0000399D0470028BFDBB8F1000F06F10106C2
:1033E0002FDC09F101094D4635E0B14699F800009E
:1033F0007028C84609F1010913D1AE1B149D46443B
:103400003544AB1B002B31DC03993B46424650460A
:1034100016F0FEF800289FDB3044049E0546064463
:1034200062E00399D0470028E0DA95E70399D04796
:103430000028B2DA90E703993020D0470028BBDAA1
:103440008AE703993020D04708F1FF38C2E7039993
:10345000D047002880DB2878A0F13003092BA8464C
:1034600005F10105F3D9A6EB0906C7E7039930205A
:10347000D0470028FFF670AF0136C2E79DF84A300A
:10348000DA0601D41B0706D503993020D04700285F
:10349000FFF662AF0135059B3BB103999DF84B00E8
:1034A000D0470028FFF658AF0135A84406E003993D
:1034B0003020D0470028FFF64FAF0135A8EB0503B9
:1034C000002BF4DC03993B463246504616F0A0F838
:1034D0000028FFF641AF28449FE703992020D047FA
:1034E0000028FFF639AF0135731B002BF5DCFFF721
:1034F000DFBB1646C1E60DF15D08BEE647F70100E9
:1035000012F0C8BF2DE9F84305464FF02003EFF352
:10351000118683F31288BFF36F8F0E4B0E4F1C681A
:10352000DFF838804FF00C092CB986F31188BFF30F
:103530006F8FBDE8F883D4E90123002D18BF13462F
:103540002BB198F8102009FB02F2B85C9847246868
:10355000EAE700BFFC110020F0110020A4260020A3
:1035600070B5144B1C7CBFF35B8F04F01F0301226A
:103570009A40114B610903EB8103D04353E8001FCC
:1035800001EA000543E80056002EF7D1BFF35B8F38
:103590000A420ED00C23094E5C433519305D697820
:1035A00016F054FB0020FFF7ADFF00233351C5E9AF
:1035B000013370BDA426002004120020F011002069
:1035C0002DE9F041334B07461D7C4FF02003EFF30C
:1035D000118883F31288BFF36F8F0C242E4B2F4E6C
:1035E0006C431A19195D002949D007CA06EB040C6F
:1035F0008CE8070000221A5588F31188BFF36F8FFB
:103600000C236B43F218F05CB8B37B1C10D0D2F8DB
:1036100008C0234C234A4FF400400021ECFB00413A
:1036200000232046FDF7CAF90121381A12F0D8FE0E
:1036300015F03AF80120FFF765FFBFF35B8F1A4BD7
:103640006A0903EB8203012405F01F0204FA02F267
:1036500053E8000F104343E800010029F8D1BFF3FD
:103660005B8F0C236B43F218F05C517816F0E2FA92
:10367000FFF776FF15F02CF82046BDE8F0810146F3
:10368000284600F013F80028B6D007C8344484E870
:103690000700B1E7A4260020E4110020F01100206B
:1036A0003F420F0040420F00041200202DE9F04F6E
:1036B000384C85B04B1C0F4603A90CBF4FF0FF38A8
:1036C0004FF0000800F06EF86368002B054612DB2F
:1036D00019F003FAD4E900321C1A62F1000698428C
:1036E0004FF00003934102DB013C46F10006012C40
:1036F00076F1000302DA3C46464609E0B8F1FF3FA6
:1037000008BFB7F1FF3F03D0A74278EB0603F2DB17
:10371000214B039F1B6800936B1E1BB203EB4303FB
:10372000DFF8789007EB83074FF400484FF0000B69
:1037300025B9AA46504605B0BDE8F08F7868184A0A
:10374000CC465946E0FB08C100236046FDF736F938
:103750000190B868124ACC465946E0FB08C10023E4
:103760006046FDF72BF9009B002BBA4601DB834234
:103770000BD9B6F1FF3F08BFB4F1FF3FDAD0019B90
:103780001844844276F10003D4DA013DADB20C3F17
:10379000CEE700BF000000209C0100203F420F0048
:1037A00040420F0008B9024B0B600020704700BF79
:1037B0000CDE01000449431E0F3013F8012F8A5C10
:1037C0001A708342F9D170474BF70100F0B5264ECD
:1037D00007460C460FCE8DB001AD0FC50FCE0FC5FD
:1037E00096E8070085E807003846002F38D0002CFF
:1037F00038D0381F2146024610344B780D781B0410
:1038000043EA0563CD782B438D78043143EA0523E1
:103810008C4242F8043FF0D1144C04218A0703691A
:1038200016D1C3F30742A55C1A0EA25C42EA0562F8
:10383000C3F30725DBB2655DE35C42EA054242EA79
:10384000032221F0030330336B4453F82C3C5340E4
:1038500050F8042F013153402C290361DED101209F
:103860000DB0F0BD2046FBE714DD01004BF7010071
:10387000014910220A60704710ED00E072B6404026
:1038800080F31188BFF36F8FBFF34F8F30BF62B6E5
:10389000BFF36F8F704700BF72B6494081F3118844
:1038A000BFF34F8F20BF80F3118862B6704700BF0F
:1038B00040B2002807DB044A4109012300F01F0041
:1038C000834042F82130704700E100E040B2002818
:1038D0000CDB4309064900F01F002033012282401F
:1038E00041F82320BFF34F8FBFF36F8F704700BFA6
:1038F00000E100E0054B420900F01F0053F82220D0
:10390000012303FA00F01040704700BF00E100E01F
:1039100040B20028A8BF00F1604001F10101B8BF2A
:10392000064B4FEA4111ACBF00F5614000F00F00BB
:10393000C9B2B4BF195480F80013704714ED00E009
:1039400008B572B6044B5A691AB100225A6119F0CF
:10395000CBFA62B608BD00BFA426002030BFFFF737
:10396000FDBF00BF0F4A08B50F4B22F07F029A60DF
:10397000BFF34F8FBFF36F8FD3F8882022F470020C
:10398000C3F88820EFF3148323F0040383F314882F
:10399000BFF36F8F13F06EFF14F0D2FF00F020FA28
:1039A00013F0BAFF0000000000ED00E0094A0A49E8
:1039B00093680968D967094998674B6843F0805351
:1039C0004B60002383F31188BFF36F8F9368D86F28
:1039D000704700BFA426002030F4010000ED00E095
:1039E00012498A684FF030001044EFF3098C80E8E8
:1039F000F01F202080F31288BFF36F8F0C4F4FF021
:103A000000668A698A603E60906F0023936780F346
:103A1000118804B5104600F029FABDE8044002F10F
:103A2000300090E8F01F8CF309887047A42600202E
:103A300004ED00E01EF0040F0CBFEFF30880EFF37D
:103A40000980816911F8021C0229FFD001B516F026
:103A50009FF801BD42F8203C009B42F81C3C0A49FB
:103A6000019B42F8183C029B42F8143C21F00101F2
:103A70004FF0807342F8043C42F8081C0023203ABF
:103A800002658367704700BF6D8F0100094A0346D6
:103A9000906870B113F1160F806E05D0A0F140024E
:103AA0009A4205D8834203D2814228BF0020704742
:103AB00000207047A426002008B5094B0D46144687
:103AC000986000F0D3F9204685F30988002163B699
:103AD00081F31188BFF36F8F0022002315F046FA9F
:103AE000A426002001B572B60B4A506900281EBFFB
:103AF0000021516119F0F8F962B6EFF30580A0F1E9
:103B000010004FEAC0000549014409C99847BDE8C3
:103B10000140034908470000A426002060DA0100A4
:103B2000253B0000044B99689869884203D00349FB
:103B30004FF080520A607047A426002004ED00E098
:103B400070B5264B15469A6A12F0100F9A6A14BF88
:103B50001124102412F0080F9A6A18BF1224920739
:103B600006460AD5586B9A6A140634D519B19A6A72
:103B700022F080029A62132401E06FF01500174BC7
:103B80009A6A12F0010F9A6A18BF142412F0200FDB
:103B90009A6A18BF1524D20602D49B6A9B070AD5DD
:103BA0000E4B5B68190506D53146FFF76FFF10B164
:103BB00080F309880224094B9A6A920642BF5A6A26
:103BC00022F400525A629A6A42F0FF029A6200237B
:103BD0002B70204670BD6FF01500CCE700ED00E0C3
:103BE000134B9A6A12F0007F9A6A14BF1E201D20A0
:103BF00012F0807F9A6A18BF1F2012F4002F9A6A71
:103C000018BF212012F4802F9A6A18BF222012F4C4
:103C1000003F9A6A18BF232012F4803F9A6A6FEA25
:103C200002426FEA12429A6218BF2420704700BF16
:103C300000ED00E010B5194B0246986A9C6A10F43A
:103C4000805F14BF1720162014F4006F9C6A18BF01
:103C50001820A40509D5986B986A000404D51AB1F8
:103C60009A6A22F400429A6219200C4B9A6A12F462
:103C7000806F9A6A18BF1A20D2050CD49B6A13F47D
:103C8000005F18BF1C20054A936A43F47F43936288
:103C900000230B7010BD1B20F5E700BF00ED00E016
:103CA00070B5454B5B688AB00546C3F30803002630
:103CB00086F31188BFF36F8F02F07F40B0F17F4F22
:103CC00011D102F00C0008280DD010074CBF0D4692
:103CD00001260022033B8DF80720032B05D8DFE8DF
:103CE00003F01E5D615A3546F3E700249DF8073066
:103CF0009BB92022294602A815F07CFF099B002EC3
:103D000054D0C3F3080222B96FEA53236FEA432366
:103D1000099302A9204615F039FF0AB070BD264B61
:103D2000DA6A9107E1D4DA6A002ADEDBDA6A520045
:103D3000DBD55A69A96942F480725A61BFF34F8F8B
:103D4000BFF36F8F5A6931F8021C22F480725A61F6
:103D5000BFF34F8FBFF36F8F4DF6027291420AD0BF
:103D60009A6AD2B24AB10DF1070201212846FFF743
:103D7000E7FE0446BAE72C68B8E79A6A12F47F4F68
:103D800005D00DF107010120FFF754FFF1E79B6A11
:103D9000B3F5803FA9D3FFF723FFEAE70DF1070250
:103DA0000021E3E70DF107010020EDE723F4FF73A5
:103DB00023F00103ACE700BF00ED00E0024A5369C5
:103DC00043F010035361704700ED00E0EFF308800B
:103DD000EFF3098101B57246FFF762FF01BD00BF35
:103DE000044800232021C2180133272B82F8001336
:103DF000F9D1704700E100E0FFF782FB202080F35B
:103E0000118808484FF40461401880F30988EFF3E3
:103E100014800221084380F31488BFF36F8FFFF7EB
:103E2000A1FD0000403B0020084B9B6883420BD162
:103E3000EFF3058343B1064B5A6842F080525A6053
:103E40005A6A22F400425A6214F008BDA4260020E7
:103E500000ED00E0024B034A0348012100F070B876
:103E600000000120000000200CDE0100826E054BE6
:103E7000403A1A60044A4021C3E901121846012160
:103E800000F068B80812002000000B15F0B5204EB5
:103E900000258D4239DA446874B353B104F1FF3C14
:103EA00014EA0C0F2FD11F2C2DD907681CEA070F1D
:103EB00029D1202C0768D0F808C05FFA82FE1ED9ED
:103EC000B4F1004F1DD8013CB4FA84F4C4F11F04CE
:103ED0006400BEF1070F4CEA040C14D827F01F044D
:103EE000144344F01004C6F89820C6F89C404CF0E7
:103EF0000104C6F8A040013201350C30C9E708249E
:103F0000E7E73E24E5E76FF015021046F0BD00BF7D
:103F100000ED00E0044B0522C3F89420BFF34F8F5F
:103F2000BFF36F8F704700BF00ED00E0BFF35F8FFE
:103F3000024B0022C3F89420704700BF00ED00E060
:103F400010B5034C01232278FFF7A0FF207010BDAD
:103F50001327002008B5094A00231278FFF796FFBF
:103F600010F1160F02D0064A072800DD08BDC2F87E
:103F70009800C2F8A0300130F6E700BF13270020F8
:103F800000ED00E014490868082810B521D8FFF7B3
:103F9000CDFF124C49680022904201F10C0105D17D
:103FA0000F4B1870FFF7B6FF002010BDC4F8982023
:103FB00051F80C3C23F01F03134343F01003C4F8E3
:103FC0009C3051F8043C43F00103C4F8A0300132A6
:103FD000E2E74FF0FF30E8E718DE010000ED00E017
:103FE00013270020014B1860704700BFA00100207C
:103FF000024B0122C3F840250020704700E0014039
:1040000020B1034B800143F001031847704700BF04
:1040100060DD010010B50E4C204618F07DFE98B111
:104020002269A168136823F4806313600B684FF45E
:1040300020220A2120469847002804DB2120002165
:1040400014F0ECFB002010BD6FF01200FBE700BF86
:10405000E8D9010008B5044818F05EFE00280CBF3E
:104060006FF01200002008BD5CD9010030B50A4D88
:104070000A4B85B0002428460293039419F0C2F835
:1040800002AB0093284606490A234FF4A36214F0BA
:1040900067F8204605B030BD600A00207CF80100BA
:1040A000802B00200146014814F092B8600A0020DD
:1040B00030B4034608461A78012A13D0022A26D0C3
:1040C00072B9154A02F1100452F8045B41F8045B1E
:1040D000A242F9D112780A705B8843731B0A83737A
:1040E00030BC70470C4A02F1100452F8045B41F8EE
:1040F000045BA242F9D112780A705B684373C3F380
:1041000007221B0CC3731B0A82730374E8E730BCDD
:104110001122194615F06EBD85F8010038B5054627
:10412000054817F0B9FC044620B100210C3017F007
:10413000EEFC2576204638BD040A002070B5024604
:104140000D48BFF35B8F0B46002150E8004F40E85D
:104150000015002DF9D1BFF35B8F24B9BDE8704085
:104160000120FFF7DBBF012304F10C00237621823D
:1041700017F0CDFC204670BD4001002070B504460C
:104180000F2C0D461046194605D80D2C0DD9BDE84B
:104190007040FFF7D3BF132C07D10C4817F07CFCFD
:1041A000044638B90024204670BD02460B4645B18E
:1041B0000748F3E700210C3017F0A9FC0123237610
:1041C000F1E7BDE870400120FFF7A8BF300A0020EA
:1041D0008009002038B5C368B3F801401B786BB97B
:1041E0000F21204601F0F8FD054640B9084B1A881A
:1041F00022B96FEA04506FEA1050188038BD0121CF
:1042000001F028FD2846BDE8384016F041BA00BF4D
:10421000E026002010B5084C0146052294F86F00F6
:1042200001F0C6FE38B994F86F000449BDE81040AB
:10423000042201F0BDBE10BD0800002062F801009C
:1042400010B5012104460C3017F08CFC2146034ABE
:104250000078BDE81040072315F0D3BDB0DE0100A3
:10426000F8B50746907A0E46144610F017FB284B17
:1042700083424BD1204610F019FB264D0C2303FB43
:1042800000504388BB4241D1234FD7F8380120B1B9
:1042900010F0B2FB0023C7F83831204610F006FBBF
:1042A0000C2707FB005043689BB196B9204610F0DD
:1042B000FDFA07FB005001214268D2E90003127A9F
:1042C00003F01F07B9405B09D2B100EB830015F082
:1042D0006AFD204610F0EAFA0C2707FB00508368BD
:1042E000A3B1204610F0E2FA78432E54204610F095
:1042F000DDFA07FB0055A868BDE8F84013F08CBD57
:10430000C94300EB830015F093FDE2E7F8BD00BF61
:10431000D8090020141200200800002038B504211C
:1043200004460C3017F01EFC457801784088224680
:10433000FFF796FF25B10348BDE8384013F06CBD88
:1043400038BD00BF2801002038B5032104460C30D9
:1043500017F008FCE36805781978B0F801002246E8
:10436000FFF77EFF25B10348BDE8384013F054BD88
:1043700038BD00BF2801002010B5C1E900239DF819
:1043800008300B720C4610F091FA034B0C2202FB22
:1043900000335C6010BD00BF141200202DE9F0470F
:1043A0004FF0FF324FF0FF3306461748174D0F46C8
:1043B00017F072FB044600F10C0A00214FF00008D0
:1043C000504617F0A4FB84F81880204610F06EFACF
:1043D0004FF00C0909FB00504680204610F066FAA9
:1043E00009FB0050C0F80880204610F05FFA09FB76
:1043F000005503215046C5F8048017F08CFB068059
:1044000087702046BDE8F087D809002014120020EC
:104410002DE9F041074686B015460C4621B9FFF755
:10442000BDFF044600284DD001220021684618F047
:1044300028FE204610F03AFADFF894800C2303FBA4
:104440000080C0F808D0204617F02FFB0146214815
:1044500017F029FB4FF4A0220023684613F002FD59
:10446000064688B140F24B131B4A1C491C4815F004
:10447000E6F81C483246394615F0E1F8404080F332
:1044800011884FF0030002DF204610F00FFA0C23D2
:10449000584318F800606EB1204610F0ADFA092EAE
:1044A00013D00D2E0CBF6FF00B006FF0040006B0A0
:1044B000BDE8F08115B12C600020F8E7204610F02F
:1044C0009BFAF9E76FF06800F1E76FF06E00EEE736
:1044D00014120020440100209EF80100D2F80100CF
:1044E000DBF80100F8F80100F7B5144B93F99B30A5
:1044F000002B05460C461DDA14B9204603B0F0BD6A
:10450000082C01AA4FF0000142F21800264628BFED
:104510000826FFF77DFF0028F0D1019FF968324699
:104520000131284615F066FB384610F065FA35442F
:10453000A41BE1E76FF08500E0E700BF0800002062
:104540002DE9F0417C4BB0F80180198848F47042A5
:1045500091424FF0000608BF1E80047888B00546DF
:1045600008BF0126BCB13C2C37D100F073FF6FF0BF
:104570008001103015F05CFC0020FFF74BFE054673
:1045800058B34472002101F065FB284608B0BDE82D
:10459000F04116F07DB8C378012B08BF674B00F1DE
:1045A0000407384608BF93F86F4015F0B6FB39464C
:1045B000B0B106A815F0A7FB062205F111010DF117
:1045C000110015F017FB01238DF81030EB78012B4B
:1045D00014D01321404615F018FD08B0BDE8F08155
:1045E000204615F04AFE0722014606A815F002FBF8
:1045F0000722394604A815F0FDFAE7E706A8FFF7F9
:1046000009FEEB78012B04460AD100F023FF6FF07E
:1046100080010746103015F00BFC384615F09BFF63
:10462000002CD6D02046B5F8013020F8883B072270
:1046300006A915F0DFFAB5F81730A4F89E30B5F8E2
:104640001930A4F8A430B5F81B30A4F8A630EB78E4
:10465000E3700022012B627217D1072204A904F132
:104660008F0015F0C7FA00F0F5FE217A334DC1EB4B
:10467000C1012944072204F1960015F0BBFAD5F8D0
:10468000E4305D0601D501F07FF80721204601F0F6
:10469000E1FA1EB10121204601F0DCFA204616F0B5
:1046A00035F8A37A072B42D1BFF35B8F6368234EA3
:1046B000BFF35B8F13F4805F18D1E3781BB196F8DA
:1046C000D830180712D5022142F21600FFF766FE15
:1046D000054658B102210C3017F01DFA23880380DB
:1046E0000022294642F21600FFF792FE96F8D930D2
:1046F000D90706D50021022300911A46204615F05D
:10470000BDFC96F8D8309A0611D5D6F854319B687E
:104710009B070CD50DF10E0103A815F05EFC30B916
:10472000BDF80E20BDF80C10204615F089FC20467F
:1047300015F0AEFF51E700BFE02600200800002082
:1047400010B5C168184C0B7888B007228DF800307E
:10475000B1F80130ADF80130CB788DF80330B1F805
:104760000B30ADF81730B1F80D30ADF81930B1F8A5
:104770000F30ADF81B304B7C8DF81D30043101A893
:1047800015F038FA214606220DF10B0015F032FA29
:10479000062221460DF1110015F02CFA6846FFF7AC
:1047A000CFFE08B010BD00BF76F80100024BD3F871
:1047B00054315B69184700BF0800002038B5054632
:1047C0000C4619B9FFF7EAFD044698B140F63543A7
:1047D0009D4209D12046FFF7E9FF054640B120463A
:1047E00010F00AF9284638BD0448214617F05BF955
:1047F0000025F7E76FF06805F4E700BF44010020EB
:104800002DE9F0473C4FDFF8F48007F11409FB680D
:1048100048466FF39433FB6001F0CAF9451C3648F3
:104820004FF0FF324FF0FF33294614F085FA60B1A4
:104830003349344840F6D623424614F000FF404046
:1048400080F311884FF0030002DF2B4E15B913F0EF
:1048500063FFDCE7F368C3F38633042B42D1337B79
:10486000002B42D128480022002317F01AF90446F1
:1048700060B92649234840F66823424614F0DFFE1B
:10488000404080F311884FF0030002DFDFF880A082
:1048900020484FF0FF324FF0FF3313F0E3FADAF81D
:1048A000380120B110F0A8F80023CAF838312046AA
:1048B00017F0FBF8CAF838012046FFF777FF88B1F8
:1048C000144813F0A9FA20460FF0F0FF124B0C2207
:1048D00002FB00301F2140882246FFF7C1FC204622
:1048E00010F08AF81436013DB0E7012BFAD1306997
:1048F000383801F037FCF5E7A40100209EF80100EC
:10490000D2F80100DBF801004401002051FA010057
:104910000800002028010020141200202DE9F04199
:10492000044600F10C06304617F02CF9B4F810805C
:10493000B8F1010F05460CD81C4A1D491D4840F628
:104940007D6314F07CFE404080F311884FF003003B
:1049500002DF3046022117F005F90746007815F00E
:10496000E0F9C20706460CD4104A1349114840F634
:10497000816314F064FE404080F311884FF003001F
:1049800002DF05230D4A3878214615F03AFAB307BD
:1049900007D56369A4F8108013FA85F5E560BDE8D2
:1049A000F0812046BDE8F04110F026B89EF80100E5
:1049B00024F90100DBF801003DF9010068DE010087
:1049C00070B5037E012B044637D0032B64D1038AD4
:1049D000032B0CD8334A3449344840F2F91314F00D
:1049E0002EFE404080F311884FF0030002DF0421C7
:1049F00004F10C0017F0B6F8FF22438806886276AF
:104A0000228AC6F30B009A42608303D020460FF03F
:104A1000F3FF10E00F2101F0DFF905460028F5D083
:104A200001F0EEF9320B60762146284615F0C7FDFD
:104A3000284615F02DFE002070BD038A012B0CD8EE
:104A4000184A1949194840F6552314F0F8FD40401A
:104A500080F311884FF0030002DF022104F10C0003
:104A600017F080F80546007815F05BF983070CD441
:104A70000C4A0F490D4840F6592314F0E0FD404020
:104A800080F311884FF0030002DF0A4A28780423DC
:104A9000214615F0B6F9B9E70FF0AEFF6FF015003B
:104AA000CAE700BF9EF8010024F90100DBF801000D
:104AB00056F9010090DE010010B5037E012B04467B
:104AC0000CD0094A09490A4840F6D36314F0B7FDEF
:104AD000404080F311884FF0030002DF2046FFF7CB
:104AE0001DFF002010BD00BF9EF8010084F90100E9
:104AF000DBF80100084A0346D2F8540130B9D968FE
:104B000039B1596929B1C2F8543170476FF0770053
:104B100070476FF01500704708000020014804211D
:104B200015F041B9DC000020F7B5B04DD5F854318F
:104B3000996811F0010121D101AA40F60340FFF765
:104B400067FC0446002861D10198C3681B789BB9B3
:104B5000BFF35B8FD5F8D430BFF35B8F05F1D40280
:104B600003F00903BFF35B8F52E8001F42E80034F3
:104B7000002CF9D1BFF35B8F0FF03EFF01AA00219B
:104B800041F20300FFF744FC044600283ED1019E99
:104B90009748F1680822013115F02CF830460FF0E3
:104BA0002BFF214601AA41F20100FFF731FC044628
:104BB00060BB0198C3685A7885F870205A88A5F8B8
:104BC00072201A7985F87120B3F80720A5F87420AF
:104BD000B3F80530A5F876300FF00EFF214601AA94
:104BE00041F20200FFF714FC044678B9019E8148A7
:104BF000F1684022013114F0FDFF30460FF0FCFE59
:104C000095F87C305E0604D46FF01204204603B0A1
:104C1000F0BD214601AA42F20300FFF7F9FB04466A
:104C20000028F3D1019E7448F1680822013114F084
:104C3000E1FF30460FF0E0FE214601AA42F20200F9
:104C4000FFF7E6FB04460028E0D1019CE368B3F8D7
:104C5000012091B241B1D97831B1A5F80421DA78B7
:104C60006648114618F00DFA20460FF0C5FE95F87B
:104C70007C6016F0200618D1022140F66D40FFF747
:104C80008DFB0446002800F0A98002210C3016F0AC
:104C900042FF0123037046702146324640F66D40C4
:104CA000FFF7B6FB04460028B0D195F89C301C07EE
:104CB00012D501AA002142F21C00FFF7A9FB04460D
:104CC0000028A3D10198C368D3F80120D3F8053098
:104CD000C5E938230FF090FE95F8D830980623D513
:104CE0000DF10201684615F078F9044600288DD1CF
:104CF000042142F22400FFF751FB064600286DD044
:104D000004210C3016F007FFBDF800300380BDF819
:104D1000023043802246314642F22400FFF778FBFE
:104D2000044600287FF472AF082142F20100FFF729
:104D300035FB0446002851D008210C3016F0EBFE5C
:104D400095F8D82012F0020F14BF2F230F239106DD
:104D500095F8D92048BF43F0400312F0090F18BF5F
:104D600043F4006300220370C3F30723437082708F
:104D7000C270027142718271C271214642F2010019
:104D8000FFF746FB044600287FF440AF95F87C30DF
:104D9000B5F804119A0624D4C9B901AA41F2050054
:104DA000FFF736FB044600287FF430AFB5F8043136
:104DB000019C4BB9E368B3F80120A5F804219A8857
:104DC0000E48114618F05DF920460FF015FE082137
:104DD00040F60140FFF7E2FA044688B96FF0680434
:104DE00014E70029F3D16FF004040FE70800002056
:104DF0008000002088000020E0000020100100203A
:104E000008210C3016F087FE10230370882300223F
:104E10004370022620238270C67002714271827133
:104E2000C371214640F60140FFF7F2FA044600281C
:104E30007FF4ECAE014601AA4FF60140FFF7E8FA15
:104E4000044648BB01980FF0D7FD214601AA4FF652
:104E50000240FFF7DDFA0446F0B9019F1648F968F1
:104E60003246013114F0C6FE38460FF0C5FD95F804
:104E7000C1305B0710D501AA21464FF60340FFF76A
:104E8000C7FA48B9019C0D48E1680122114414F0A9
:104E9000B1FE20460FF0B0FD00F046FA04460028AF
:104EA0007FF4B4AE01F0ECF9044600287FF4AEAE16
:104EB000FFF734FEAAE600BFC9000020C8000020AA
:104EC00010B5FFF731FE034B1B6813B1BDE810406E
:104ED000184710BD2C12002070B5264DD5F854315E
:104EE00088B00646002B3FD06FF0020105F1D400D8
:104EF00014F09EFF012114F056FF10EA010436D190
:104F00001D4B1E600A4605F5907018F0BAF805F5BD
:104F10009E7018F071F800220023CDE906236FF08F
:104F20000803CDE90243CDE90044144B144904942D
:104F30004FF44072134812F0E1FD1349114817F085
:104F4000CEFFD5F85431DB689847044648B926B9F6
:104F500008B0BDE87040FFF7E7BD05F1C40013F0ED
:104F6000F9F8204608B070BD6FF01204F9E76FF051
:104F70007704F6E7080000202C120020014800000A
:104F800000310020000B0020A7F90100044BBFF303
:104F90005B8F1868BFF35B8FC0F38000704700BF62
:104FA000DC00002000487047ADF90100F8B50A4F59
:104FB00006460025FB79ECB2A34202D86FF001004F
:104FC00009E0C4EBC4013944304615F04EF901350F
:104FD0000028EFD02046F8BD0800002038B513495E
:104FE0000622054614F0F6FDD8B1062142F205006E
:104FF000FFF7D4F90446B0B1062229460C3016F06A
:1050000090FD0022214642F20500FFF701FA48B95F
:1050100006220648294614F0EDFD054B012283F8CF
:105020006820002038BD6FF06800FBE771000020A9
:105030000800002037B504460D4679B114492846CA
:1050400015F013F950B91348C4EBC40407222946DC
:10505000204414F0CFFD002003B030BD684614F0AA
:1050600044FE0028F8D16846FFF7A0FF0028F5DAD3
:10507000084BC4EBC4041C4407226946204614F0C4
:10508000B9FD002DE7D0072221462846E1E700BF01
:1050900069F801000800002070B50D46044618B9F3
:1050A000BDB16FF0150070BD1D4915F0DEF8002888
:1050B000F6D12378012BF4D1A37903F0C003C02BE0
:1050C000EFD12046FFF772FF0028E9DB6FF0770091
:1050D000E9E7144DEB79012B1ED0BFF35B8FD5F8B8
:1050E000D430BFF35B8FDB070BD5EE792146731C01
:1050F0003046EB71FFF79EFF60B1EB79013BEB713E
:10510000D1E7002CCDD00649204615F0AEF8002896
:10511000EBD0C6E73046C6E76FF00B00C3E700BF31
:1051200069F801000800002073B5044698B101AA8F
:10513000002141F20900FFF76BF9064658B9019BBF
:105140000F49DD6801350622284614F043FD28B9D1
:1051500001980FF051FC002002B070BD09490622F1
:10516000284614F037FD0028F2D006222946601C9C
:1051700014F040FD019826700FF03EFC0120EBE793
:1051800076F8010070F8010007B56846FFF7CCFF1C
:10519000044BD87118B169460020FFF74BFF03B0EC
:1051A0005DF804FB080000202DE9F341164B93F84D
:1051B000C230DB070746884604D40026304602B0DA
:1051C000BDE8F08101AA00214FF60940FFF720F960
:1051D00004460028F1D1019BDD686E78464528BF62
:1051E000464602354FF01608A64203DC01980FF040
:1051F00003FCE3E7294608FB0470162214F0FAFCCE
:1052000001341635F0E700BF08000020F0B5154E58
:10521000F47989B02CB9012102A8FFF7C5FFF0711C
:10522000C8B90021084609B0BDE8F040FFF734BF17
:1052300002AB07FB053106220DF1010014F0DAFC88
:105240000123694628468DF80030FFF7F3FE01344C
:1052500010B109B0F0BD1627F379E5B2AB42E7D83B
:105260000020F6E7080000202DE9F04190460E46A8
:105270001D460246002852D0002B50D0310304783E
:1052800007D573074BD415F005F888BB01232B70A5
:105290002DE0F7072ED5234FB8F1000F13D0B0063D
:1052A0000AD4C4EBC403FB5C012B11D02B70B206F3
:1052B0001DD543F00203EAE797F8D8305906F0D439
:1052C0006FF0850014E0C4EBC403FB5C012BDED15E
:1052D000072101FB04710131104614F0D3FF38B9E6
:1052E000C4EBC4043B5D2B70B8F1000FDFD100208C
:1052F000BDE8F08173070ED50A4EC4EBC407F35D19
:10530000012BC4D1072111FB0431314414F0BAFF41
:10531000F35D2B70ECE714F0BDFF0123F9E76FF0AC
:105320001500E5E70800002010B50A4CE3790BB141
:10533000002010BDFFF728FF0028FAD1E379002BE9
:10534000F6D1FFF763FF0028F3D1601CBDE81040E1
:10535000FFF744BE0800002038B5436804465805EE
:1053600001D5002038BD22690AB1D907F9D5194DF8
:105370002078EB798342F4D9C0EBC00016490722AC
:10538000284414F027FC0028EBD06068C20706D43C
:1053900095F87030082B02D8A3689F2BE1D910F044
:1053A000300F02D02369002BDBD0C30601D4236960
:1053B00043B9D4E902239A42D3D81F2AD1D9B3F5ED
:1053C000804FCED800F46030B0F5603018BF0120B7
:1053D000C8E700BF0800002069F8010008B50449CB
:1053E0000722093014F0F6FB003818BF012008BD71
:1053F00069F8010070B5154B027883F86F200446F8
:105400000D46FFF7EBFF034620786BB9104900F01B
:105410009BFD044610B96FF00B0070BD042100F035
:1054200019FC2C600020F8E704F10906314615F05C
:1054300098F940B92078314600F086FD04460028EE
:10544000E9D00521EBE76FF01500E6E70800002042
:1054500062F8010000487047200000202DE9F04F5D
:10546000D1F810908DB09A460023B9EB030506469B
:105470008B48059218BF0125079314F035FF4207AA
:105480000C4640F102810846FFF766FF28B96FF02D
:10549000150B58460DB0BDE8F08F204614F011FFF3
:1054A00080460028F3D006F11007384614F01CFFA0
:1054B0000306C0F3C01B00F1EB800F22594608A879
:1054C00014F0A3FBA3686068ADF82030E368ADF882
:1054D000223014F0FAFE6FF400518DF82D00704860
:1054E0008DF82EB014F006FF6E4A2378337082F8E0
:1054F0006F3061680DF125032A463046FFF7B4FE90
:1055000083460028C5D106F109000722B9F1000F32
:1055100013D0216914F06EFB204614F0E7FF626897
:105520000546D00716D4920503D4169B0BB9022D5D
:105530004DD102238DF824301AE05B4914F05AFB58
:10554000204614F0D3FF6268D1070546EBD58DF8ED
:1055500024900DE012F0100F0CBF012204228DF8F0
:105560002420216907220DF1260014F043FBD846C0
:105570000F2142F20600FEF711FF8346002800F0DB
:105580008A800F2208A90C3016F0CBFA0022594667
:1055900042F20600FEF73CFF00287FD1B9F1000F70
:1055A0001BD06368DB0726D43046012114F0AEFF20
:1055B000079E8346002860D0002E3FF46AAF304635
:1055C000002100F047FB304615F062F861E7032345
:1055D000DDF858808DF82430CAE7179B0093CDE999
:1055E0000185169B05995246304614F008FF834604
:1055F0000028D6D04DE707A93046FFF7FBFE8346CB
:105600000028D1D010F10C0F7FF443AFB9F1000F97
:105610007FF43FAF626890073FF53BAF636883F06C
:105620000203C3F3400B0BF001020E21384614F0C5
:10563000CFFE6B1E5A425A410821384614F0C8FE6C
:10564000A91E4A424A413846092114F0C1FE626847
:105650000A2102F00102384614F0BAFE42460B213C
:10566000384614F0B5FE62680D21C2F38002384658
:1056700014F0AEFE4FF0000B0BE716B1304615F0FC
:1056800007F8B9F1000FCED1C8E76FF00A0B00E7B9
:105690006FF0770BFDE66FF0680BFAE68346F8E6ED
:1056A000DC0000200800002069F8010073B51546F1
:1056B000069A0C46CDE900322B460A4601461148AF
:1056C000FFF7CCFE21460646002340F201109D4222
:1056D00002D1304602B070BD0A88824204D14A68C5
:1056E00012B11278D20702D401330831EFE706492C
:1056F000064817F08DFD4FF470220023034812F086
:10570000C5FDE6E7200000205DA50100380000206F
:1057100010B5194814F01FFF18486FF4804114F0B9
:10572000E9FD164814F0E0FD03461A06C0F3C01068
:1057300021D5124814F0D8FD430512D50E48FFF7C5
:105740004DFE0F4B98B90F490422187E00F030FC33
:10575000044630B10021417200F07CFA204614F07A
:1057600097FFBDE810400448002114F0CFBE052289
:1057700003F12101E9E710BD2000002030000020E6
:105780000800002062F8010073B53248314C14F073
:10579000ABFD10F4804F5AD0204614F0A5FD03064F
:1057A00055D4204614F0A0FD460550D501A9A4F11A
:1057B0001000FFF71FFE002849D1A4F11000FFF7E9
:1057C0000DFE0246204614F08FFDC0F380312046C6
:1057D00014F08AFD81F0010145054FEA41011D48A1
:1057E00048BF41F0010114F07FFD800448BF41F043
:1057F000040119480DF10303FFF736FD054630BBE0
:105800001548012114F082FE019E28B9304602B0ED
:10581000BDE8704014F03CBF2946304600F01AFA4B
:105820006FF480410B4814F065FD0546304614F0D6
:105830002FFF6B040BD5BFF35B8F54E8003F43F49D
:10584000804344E80032002AF7D1BFF35B8F02B0F7
:1058500070BD00BF300000202000002070B50B4B51
:105860001D68044625B90A4D0A4EB54207D370BDDE
:105870002B6813B1617A204698472D69F2E72B68AF
:1058800013B1617A204698471435EEE76012002084
:10589000BCDB0100D0DB01002DE9F041154F0446CF
:1058A0004FF000084FF02002EFF3118382F31288CB
:1058B000BFF36F8F216A29B983F31188BFF36F8F0C
:1058C000BDE8F081606A0A682262814208BF6262B4
:1058D00083F31188BFF36F8FD1E90156C1F80C80B3
:1058E000C1E90188384617F0B3FB00223146204653
:1058F000A847D7E73C09002070B5D1E9015600223E
:10590000C1E901220446CA60054817F0A1FB3146EF
:1059100020462B466FF06D02BDE87040184700BF6F
:105920003C0900202DE9F84FDFF878811F46B8F8D0
:105930000431002B04460D4608F58470164608BF56
:1059400000200022002312F08DFA002840F0A780EA
:10595000002E7AD006F10C0A5046B8F804B116F0C1
:1059600015F958456BD9B8F804B155F80C1F5A46CB
:10597000504616F0D6F85946284616F0EBF8A37AAA
:10598000B569072B40F088804FF02003EFF31182B8
:1059900083F31288BFF36F8F002D61D000232B603B
:1059A000A369002B59D1C4E9055582F31188BFF3CF
:1059B0006F8F042106F10C0016F0C4F8238807F05D
:1059C000FD0743EA07370780338A043B43800223FD
:1059D00033763046FEF7EAFE074668B34FF0200301
:1059E000EFF3118183F31288BFF36F8F002D4DD039
:1059F000636900225BB19D4245D12B68002A3CD1EE
:105A0000A2696361954200D1A36100232B6081F3F9
:105A10001188BFF36F8F6FF00407B8F80431224884
:105A2000002B08BF002012F0F7F92DB10023B3615D
:105A300029462046FFF760FF3846BDE8F88F5046FC
:105A400016F0A4F81FFA80FB8FE70022002304F170
:105A5000380016F026F8064691E71D60A561A4E718
:105A6000A36933B103F10C09DB680133C9F80030D5
:105A70009BE7E36904F11C09F7E71360A3699D4202
:105A800008BFA261C1E71A461B68B3E7D9F8003026
:105A9000013BC9F80030BAE76FF07F07BDE76FF050
:105AA0006807C9E708000020100100200448B0F88A
:105AB0000431002B00F5847008BF0020704700BF40
:105AC0000800002038B5002204468A4202D1002492
:105AD000204638BD04F1BC030120BFF35B8F53E8BF
